:100000001EC02DC02CC02BC02AC029C028C027C0AC
:1000100027C099C024C023C022C021C020C01FC057
:100020001EC01DC01CC05EC187C1B0C1D9C102C203
:100030002BC254C27DC2A6C2CFC2F8C221C31124B2
:100040001FBECFE5D4E0DEBFCDBF20E0A0E6B0E02C
:1000500001C01D92AC36B207E1F7F9D01AC9D0CF72
:100060001F920F9200905F000F9211242F933F93E5
:100070004F938F939F93EF93FF93CF93DF93CDB7DE
:10008000DEB780916A0090916B0001968170907844
:10009000992324F401978E6F9F6F019690936B00C4
:1000A00080936A0088E390E028E330E0F901208142
:1000B000422F20916A0030916B00220F331F205A8B
:1000C0003F4FF9012081318120952423FC012083B9
:1000D00082E390E022E330E0F9012081422F209179
:1000E0006A0030916B00220F331F2A593F4FF901EC
:1000F0002081318120952423FC01208380916A0096
:1001000090916B00880F991F805A9F4FFC011182BC
:10011000108280916A0090916B00880F991F8A5914
:100120009F4FFC0111821082DF91CF91FF91EF91DF
:100130009F918F914F913F912F910F9000925F006F
:100140000F901F9018951F920F9200905F000F92D2
:1001500011242F933F934F938F939F93EF93FF938C
:10016000CF93DF93CDB7DEB780916A0090916B009B
:10017000019681709078992324F401978E6F9F6F78
:10018000019690936B0080936A0088E390E028E3E7
:1001900030E0F9012081422F20916A0030916B00FC
:1001A000220F331F205A3F4FF901208131812095C2
:1001B0002423FC01208382E390E022E330E0F90174
:1001C0002081422F20916A0030916B00220F331F53
:1001D0002A593F4FF9012081318120952423FC01C8
:1001E000208380916A0090916B00880F991F805A3C
:1001F0009F4FFC011182108280916A0090916B00E8
:10020000880F991F8A599F4FFC0111821082DF913C
:10021000CF91FF91EF919F918F914F913F912F91AE
:100220000F9000925F000F901F901895CF93DF936F
:10023000CDB7DEB7F8948DE490E0FC0110828CE439
:1002400090E0FC0110827894DF91CF910895CF93D4
:10025000DF93CDB7DEB710926B0010926A0083E592
:1002600090E024E0FC01208389E590E021E0FC019E
:10027000208387E390E02FEFFC01208381E390E06F
:100280002FEFFC01208388E390E0FC01108282E3E1
:1002900090E0FC01108282E380D210926500789495
:1002A00050D6882F90E08036910509F014C284E67C
:1002B00090E001D6000080916500882F90E0AA2789
:1002C00097FDA095BA2F41E850E02BE030E0841B69
:1002D000950B2817390708F4FDC18D5E9F4F8F934A
:1002E0009F93089588E390E028E330E0F9012081AE
:1002F0002D7FFC01208388E390E028E330E0F901C2
:1003000020812160FC01208380916A0090916B0024
:1003100020916A0030916B00220F331F205A3F4F0B
:10032000F901208131812160880F991F805A9F4FE8
:10033000FC0131832083CFC188E390E028E330E0E3
:10034000F90120812E7FFC01208388E390E028E3DF
:1003500030E0F90120812260FC01208380916A0055
:1003600090916B0020916A0030916B00220F331F37
:10037000205A3F4FF901208131812260880F991F57
:10038000805A9F4FFC0131832083A5C188E390E010
:1003900028E330E0F9012081277FFC01208388E3F6
:1003A00090E028E330E0F90120812460FC01208303
:1003B00080916A0090916B0020916A0030916B00EF
:1003C000220F331F205A3F4FF901208131812460D1
:1003D000880F991F805A9F4FFC01318320837BC176
:1003E00088E390E028E330E0F90120812B7FFC01D5
:1003F000208388E390E028E330E0F9012081286041
:10040000FC01208380916A0090916B0020916A002A
:1004100030916B00220F331F205A3F4FF90120818A
:1004200031812860880F991F805A9F4FFC013183CA
:10043000208351C188E390E028E330E0F901208176
:100440002F7DFC01208388E390E028E330E0F90170
:1004500020812061FC01208380916A0090916B00D3
:1004600020916A0030916B00220F331F205A3F4FBA
:10047000F901208131812061880F991F805A9F4F97
:10048000FC013183208327C188E390E028E330E03A
:10049000F90120812F7EFC01208388E390E028E38E
:1004A00030E0F90120812062FC01208380916A0004
:1004B00090916B0020916A0030916B00220F331FE6
:1004C000205A3F4FF901208131812062880F991F06
:1004D000805A9F4FFC0131832083FDC082E390E06E
:1004E00022E330E0F90120812F7BFC01208382E3AD
:1004F00090E022E330E0F90120812068FC012083B4
:1005000080916A0090916B0020916A0030916B009D
:10051000220F331F2A593F4FF90120813181206872
:10052000880F991F8A599F4FFC0131832083D3C0C4
:1005300082E390E022E330E0F90120812F77FC0193
:10054000208382E390E022E330E0F90120812064FF
:10055000FC01208380916A0090916B0020916A00D9
:1005600030916B00220F331F2A593F4FF901208130
:1005700031812064880F991F8A599F4FFC01318374
:100580002083A9C082E390E022E330E0F9012081DA
:100590002B7FFC01208382E390E022E330E0F9012D
:1005A00020812062FC01208380916A0090916B0081
:1005B00020916A0030916B00220F331F2A593F4F60
:1005C000F901208131812062880F991F8A599F4F3C
:1005D000FC01318320837FC082E390E022E330E09E
:1005E000F90120812F7DFC01208382E390E022E34A
:1005F00030E0F90120812460FC01208380916A00B1
:1006000090916B0020916A0030916B00220F331F94
:100610002A593F4FF901208131812460880F991FA9
:100620008A599F4FFC013183208355C082E390E0BB
:1006300022E330E0F90120812E7FFC01208382E358
:1006400090E022E330E0F90120812260FC01208368
:1006500080916A0090916B0020916A0030916B004C
:10066000220F331F2A593F4FF90120813181226027
:10067000880F991F8A599F4FFC01318320832BC01B
:1006800082E390E022E330E0F90120812D7FFC013C
:10069000208382E390E022E330E0F90120812160B1
:1006A000FC01208380916A0090916B0020916A0088
:1006B00030916B00220F331F2A593F4FF9012081DF
:1006C00031812160880F991F8A599F4FFC01318326
:1006D000208301C00000E4CDCF93DF93CDB7DEB718
:1006E00084E390E024E330E0F90120812860FC01FC
:1006F000208385E390E025E330E0F9012081277F26
:10070000FC012083DF91CF910895CF93DF93CDB784
:10071000DEB784E390E024E330E0F9012081286033
:10072000FC01208385E390E025E330E0F90120819E
:100730002860FC012083DF91CF910895CF93DF9350
:10074000CDB7DEB728970FB6F894DEBF0FBECDBF8A
:1007500069837A838B839C8389819A81AB81BC81F5
:100760009C01AD01220F331F441F551F80E894E800
:10077000AEE1B0E0BC01CD01F6D3DA01C9010897C2
:10078000A109B109BC01CD0128960FB6F894DEBFCE
:100790000FBECDBFDF91CF910895CF93DF931F920E
:1007A000CDB7DEB7898384E390E024E330E0F9013C
:1007B00020812F7CFC01208385E390E025E330E05D
:1007C000F90120812063FC01208382E290E02981ED
:1007D000220FFC01208386E590E024ECFC012083BD
:1007E0000F90DF91CF9108950F931F93CF93DF93D5
:1007F00000D000D0CDB7DEB769837A838B839C832A
:1008000084E390E024E330E0F90120812F7CFC01B7
:10081000208385E390E025E330E0F9012081206327
:10082000FC01208300E210E089819A81AB81BC81C8
:10083000BC01CD0183DFDC01CB01F80180830F9087
:100840000F900F900F90DF91CF911F910F9108950E
:10085000CF93DF9300D0CDB7DEB78A83198286E5C8
:1008600090E024EAFC012083000086E590E0FC0192
:1008700080818823D4F781E290E0FC018081887F29
:1008800089838981883011F080E016C083E290E08E
:100890002A81FC01208386E590E024E8FC01208386
:1008A000000086E590E0FC0180818823D4F781E296
:1008B00090E0FC018081887F0F900F90DF91CF91B5
:1008C0000895CF93DF9300D000D000D0CDB7DEB72E
:1008D0008C837E836D838C81880FBADF8B838B81C1
:1008E000883111F080E03EC01A82198230C083E264
:1008F00090E0AE014A5F5F4F29813A81240F351F96
:10090000F9012081FC01208386E590E024E8FC01C8
:100910002083000086E590E0FC0180818823D4F7E5
:1009200081E290E0FC018081887F8B838B8188321B
:1009300029F08B81803311F080E014C08B818033EB
:1009400009F40AC089819A8101969A8389838981F1
:100950009A81181619065CF686E590E024E9FC01F8
:10096000208381E026960FB6F894DEBF0FBECDBF80
:10097000DF91CF910895CF93DF93CDB7DEB7629724
:100980000FB6F894DEBF0FBECDBF888B7A8B698B14
:10099000A3DE89899A89BC01888993DF8983B5DEC2
:1009A00080E090E0A0E2B1E48A839B83AC83BD83C6
:1009B00020E030E04AEF53E46A817B818C819D81A5
:1009C00005D4DC01CB018E839F83A887B98720E003
:1009D00030E040E85FE36E817F8188859985E5D2CC
:1009E00088232CF481E090E09B878A873BC020E03D
:1009F0003FEF4FE757E46E817F8188859985E2D389
:100A000018163CF520E030E040E251E46A817B8139
:100A10008C819D81DBD3DC01CB01BC01CD0131D3C5
:100A2000DC01CB019B878A870FC082E390E09D8722
:100A30008C878C859D850197F1F79D878C878A85AA
:100A40009B8501979B878A878A859B85009769F795
:100A500013C06E817F818885998513D3DC01CB011A
:100A60009B878A878A859B859F878E878E859F85B2
:100A70000197F1F79F878E87898162960FB6F89468
:100A8000DEBF0FBECDBFDF91CF910895CF93DF932F
:100A900000D000D0CDB7DEB79C838B831A82198239
:100AA0002FC083E290E0AE014C5F5F4F29813A8115
:100AB000240F351FF9012081FC01208389819A814F
:100AC00099236CF486E590E024ECFC01208300007F
:100AD00086E590E0FC0180818823D4F70CC086E590
:100AE00090E024E8FC012083000086E590E0FC0112
:100AF00080818823D4F789819A8101969A8389839A
:100B000089819A811816190664F686E590E024EC2E
:100B1000FC0120830F900F900F900F90DF91CF91E9
:100B20000895CF93DF9300D000D000D0CDB7DEB7CB
:100B30008C837E836D838C81880F8F5F89DE8B83AE
:100B40008B81803411F080E041C01A82198233C059
:100B500086E590E024ECFC012083000086E590E02F
:100B6000FC0180818823D4F783E290E0FC0140817E
:100B70002D813E8189819A81820F931F0196FC010C
:100B8000408381E290E0FC018081887F8B838B81B0
:100B9000803529F08B81883511F080E017C081E223
:100BA00090E0FC018081883509F40AC089819A812E
:100BB00001969A83898389819A811816190644F6C9
:100BC00086E590E024E9FC01208381E026960FB6BB
:100BD000F894DEBF0FBECDBFDF91CF910895CF93C4
:100BE000DF93CDB7DEB7E2970FB6F894DEBF0FBE46
:100BF000CDBF88AB7AAB69AB6FDD80E090E4ACE948
:100C0000B7E48A839B83AC83BD832BEA3AEA4AE24A
:100C10005FE36A817B818C819D81D8D2DC01CB012D
:100C20008E839F83A887B98720E030E040E05FE3B0
:100C30006A817B818C819D81C9D2DC01CB018A874D
:100C40009B87AC87BD8720E030E040E85FE36E81A2
:100C50007F8188859985A9D188231CF481E08E87BE
:100C6000A7C020E03FEF4FE757E46A857B858C857E
:100C70009D85A8D218160CF074C020E030E04AE739
:100C800054E46A817B818C819D8193D1DC01CB010D
:100C90008F87988BA98BBA8B20E030E04AEF53E422
:100CA0006F85788989899A8991D2DC01CB018B8BF8
:100CB0009C8BAD8BBE8B20E030E040E85FE36B891E
:100CC0007C898D899E8971D188232CF481E090E004
:100CD000988F8F8B3BC020E03FEF4FE757E46B8945
:100CE0007C898D899E896ED218163CF520E030E013
:100CF00040E251E46F85788989899A8967D2DC015D
:100D0000CB01BC01CD01BDD1DC01CB01988F8F8B14
:100D10000FC082E390E09A8F898F898D9A8D019719
:100D2000F1F79A8F898F8F89988D0197988F8F8B84
:100D30008F89988D009769F73BC06B897C898D8975
:100D40009E899FD1DC01CB01988F8F8B8F89988DE5
:100D50009C8F8B8F8B8D9C8D0197F1F79C8F8B8F48
:100D600027C020E030E04FE753E46E817F81888523
:100D7000998528D21816A4F46A857B858C859D8573
:100D800080D1DC01CB019E8F8D8F8D8D9E8D98A3A0
:100D90008F8F8F8D98A10197F1F798A38F8F0EC039
:100DA0006E817F81888599856CD1DC01CB018E872E
:100DB0008E8589A389A18A95F1F789A389A99AA922
:100DC000BC0188A9AEDE8983A0DC80E090E0A0E2CF
:100DD000B1E48AA39BA3ACA3BDA320E030E04AEF1B
:100DE00053E46AA17BA18CA19DA1F0D1DC01CB01D0
:100DF0008EA39FA3A8A7B9A720E030E040E85FE357
:100E00006EA17FA188A599A5D0D088232CF481E07C
:100E100090E09BA78AA73BC020E03FEF4FE757E455
:100E20006EA17FA188A599A5CDD118163CF520E02B
:100E300030E040E251E46AA17BA18CA19DA1C6D122
:100E4000DC01CB01BC01CD011CD1DC01CB019BA796
:100E50008AA70FC082E390E09DA78CA78CA59DA5D3
:100E60000197F1F79DA78CA78AA59BA501979BA742
:100E70008AA78AA59BA5009769F713C06EA17FA1D9
:100E800088A599A5FED0DC01CB019BA78AA78AA5DE
:100E90009BA59FA78EA78EA59FA50197F1F79FA75A
:100EA0008EA78981E2960FB6F894DEBF0FBECDBF44
:100EB000DF91CF910895CF93DF9300D000D0CDB7CD
:100EC000DEB79C838B831A8219821EC086E590E070
:100ED00024ECFC012083000086E590E0FC01808189
:100EE0008823D4F783E290E0FC0140812B813C8190
:100EF00089819A81820F931F0196FC014083898129
:100F00009A8101969A83898389819A811816190694
:100F1000ECF686E590E024E8FC012083000086E5FD
:100F200090E0FC0180818823D4F786E590E024ECF2
:100F3000FC0120830F900F900F900F90DF91CF91C5
:100F40000895CF93DF93CDB7DEB7000086E590E03C
:100F5000FC0180818823D4F781E290E0FC0180814C
:100F6000DF91CF910895A1E21A2EAA1BBB1BFD01B0
:100F70000DC0AA1FBB1FEE1FFF1FA217B307E40778
:100F8000F50720F0A21BB30BE40BF50B661F771FD0
:100F9000881F991F1A9469F76095709580959095B0
:100FA0009B01AC01BD01CF01089597D008F481E009
:100FB00008950CD0CDC0C5D040F0BCD030F021F4A5
:100FC0005F3F19F0AEC05111F7C0B1C0D2D098F355
:100FD0009923C9F35523B1F3951B550BBB27AA27BA
:100FE00062177307840738F09F5F5F4F220F331F2C
:100FF000441FAA1FA9F333D00E2E3AF0E0E830D0F8
:1010000091505040E695001CCAF729D0FE2F27D0FA
:10101000660F771F881FBB1F261737074807AB07C8
:10102000B0E809F0BB0B802DBF01FF2793585F4F3D
:101030002AF09E3F510568F074C0BEC05F3FECF3DC
:10104000983EDCF3869577956795B795F7959F5F02
:10105000C9F7880F911D9695879597F90895E1E056
:10106000660F771F881FBB1F621773078407BA07B5
:1010700020F0621B730B840BBA0BEE1F88F7E09510
:1010800008957FD088F09F5790F0B92F9927B751D6
:10109000A0F0D1F0660F771F881F991F1AF0BA953C
:1010A000C9F712C0B13081F086D0B1E0089583C095
:1010B000672F782F8827B85F39F0B93FCCF3869532
:1010C00077956795B395D9F73EF49095809570958F
:1010D00061957F4F8F4F9F4F0895990F0008550FCF
:1010E000AA0BE0E8FEEF16161706E807F907C0F0AE
:1010F00012161306E407F50798F0621B730B840BB6
:10110000950B39F40A2661F0232B242B252B21F48F
:1011100008950A2609F4A140A6958FEF811D811D2F
:10112000089597F99F6780E870E060E008959FEF69
:1011300080EC089500240A9416161706180609066E
:10114000089500240A94121613061406050608953D
:10115000092E0394000C11F4882352F0BB0F40F4C5
:10116000BF2B11F460FF04C06F5F7F4F8F4F9F4F05
:10117000089557FD9058440F551F59F05F3F71F087
:101180004795880F97FB991F61F09F3F79F08795EE
:101190000895121613061406551FF2CF4695F1DF77
:1011A00008C0161617061806991FF1CF8695710507
:1011B000610508940895E894BB2766277727CB013B
:1011C00097F908958ADF08F48FEF08950BD0C0CF08
:1011D000B1DF28F0B6DF18F0952309F0A2CFA7CF32
:1011E0001124EACFC6DFA0F3959FD1F3950F50E00D
:1011F000551F629FF001729FBB27F00DB11D639FC9
:10120000AA27F00DB11DAA1F649F6627B00DA11D6E
:10121000661F829F2227B00DA11D621F739FB00D14
:10122000A11D621F839FA00D611D221F749F332784
:10123000A00D611D231F849F600D211D822F762F1D
:101240006A2F11249F5750408AF0E1F088234AF01A
:10125000EE0FFF1FBB1F661F771F881F9150504066
:10126000A9F79E3F510570F05CCFA6CF5F3FECF32E
:10127000983EDCF3869577956795B795F795E79552
:101280009F5FC1F7FE2B880F911D9695879597F963
:061290000895F894FFCF61
:00000001FF
