:1000000012C021C020C01FC01EC01DC01CC01BC00C
:100010001AC019C018C017C016C015C014C013C02C
:1000200012C011C010C011241FBECFE5D4E0DEBF46
:10003000CDBF20E0A0E6B0E001C01D92A736B20718
:10004000E1F702D0F7C6DCCFCF93DF93CDB7DEB7B1
:1000500006D013D080E090E0DF91CF910895CF9348
:10006000DF93CDB7DEB781D444D060E87AE186E093
:1000700090E0AED0DF91CF910895CF93DF93CDB7CD
:10008000DEB783E690E0B7D4809163008823B9F4AB
:100090008091640090916500A0916600809360005B
:1000A00090936100A0936200809160009091610044
:1000B000A0916200AC016A2F89E055D1E2CFE1CF77
:1000C000CF93DF93CDB7DEB784E390E024E330E055
:1000D000F90120812860FC01208385E390E025E37D
:1000E00030E0F9012081277FFC012083DF91CF914F
:1000F0000895CF93DF93CDB7DEB784E390E024E398
:1001000030E0F90120812860FC01208385E390E044
:1001100025E330E0F90120812860FC012083DF9194
:10012000CF910895CF93DF93CDB7DEB728970FB661
:10013000F894DEBF0FBECDBF69837A838B839C8327
:1001400089819A81AB81BC819C01AD01220F331F53
:10015000441F551F80E092E1AAE7B0E0BC01CD0149
:100160006ED4DA01C9010897A109B109BC01CD011A
:1001700028960FB6F894DEBF0FBECDBFDF91CF91AA
:100180000895CF93DF931F92CDB7DEB7898384E3C1
:1001900090E024E330E0F90120812F7CFC012083F2
:1001A00085E390E025E330E0F90120812063FC0144
:1001B000208382E290E02981220FFC01208386E5E2
:1001C00090E024ECFC0120830F90DF91CF91089503
:1001D0000F931F93CF93DF9300D000D0CDB7DEB73E
:1001E00069837A838B839C8384E390E024E330E00B
:1001F000F90120812F7CFC01208385E390E025E339
:1002000030E0F90120812063FC01208300E210E04E
:1002100089819A81AB81BC81BC01CD0183DFDC0186
:10022000CB01F80180830F900F900F900F90DF911A
:10023000CF911F910F910895CF93DF9300D0CDB749
:10024000DEB78A83198286E590E024EAFC012083E8
:10025000000086E590E0FC0180818823D4F781E2EC
:1002600090E0FC018081887F89838981883011F04A
:1002700080E016C083E290E02A81FC01208386E5BD
:1002800090E024E8FC012083000086E590E0FC017A
:1002900080818823D4F781E290E0FC018081887F0F
:1002A0000F900F90DF91CF910895CF93DF93CDB74B
:1002B000DEB727970FB6F894DEBF0FBECDBF8C8395
:1002C0004D835E836F838C81880FB6DF8B838B8138
:1002D000883111F080E03EC01A82198230C083E27A
:1002E00090E0AE014B5F5F4F29813A81240F351FAB
:1002F000F9012081FC01208386E590E024E8FC01DF
:100300002083000086E590E0FC0180818823D4F7FB
:1003100081E290E0FC018081887F8B838B81883231
:1003200029F08B81803311F080E014C08B81803301
:1003300009F40AC089819A8101969A838983898107
:100340009A81833091055CF286E590E024E9FC0116
:10035000208381E027960FB6F894DEBF0FBECDBF95
:10036000DF91CF910895CF93DF93CDB7DEB7639739
:100370000FB6F894DEBF0FBECDBF888B498B5A8B6A
:100380006B8B9EDE89899A89AB89AC016A2F88893B
:100390008CDF8983AEDE80E090E0A0E2B1E48A8366
:1003A0009B83AC83BD8320E030E04AEF54E46A8154
:1003B0007B818C819D81DBD4DC01CB018E839F838B
:1003C000A887B98720E030E040E85FE36E817F8155
:1003D00088859985BBD388232CF481E090E09B87A6
:1003E0008A873BC020E03FEF4FE757E46E817F8173
:1003F00088859985B8D418163CF520E030E040E2B5
:1004000051E46A817B818C819D81B1D4DC01CB0177
:10041000BC01CD0107D4DC01CB019B878A870FC0CB
:1004200088EC90E09D878C878C859D850197F1F7FE
:100430009D878C878A859B8501979B878A878A857C
:100440009B85009769F713C06E817F8188859985A8
:10045000E9D3DC01CB019B878A878A859B859F87AF
:100460008E878E859F850197F1F79F878E8789817B
:1004700063960FB6F894DEBF0FBECDBFDF91CF916C
:100480000895CF93DF9300D000D01F92CDB7DEB791
:100490006B837C838D831A82198230C083E290E063
:1004A000AE014D5F5F4F29813A81240F351FF9015D
:1004B0002081FC01208389819A81823091056CF42E
:1004C00086E590E024ECFC012083000086E590E0C6
:1004D000FC0180818823D4F70CC086E590E024E8F5
:1004E000FC012083000086E590E0FC0180818823E8
:1004F000D4F789819A8101969A83898389819A8127
:10050000833091055CF286E590E024ECFC012083C9
:100510000F900F900F900F900F90DF91CF91089553
:10052000CF93DF9300D000D000D0CDB7DEB78C835F
:100530007E836D838C81880F8F5F7EDE8B838B81C2
:10054000803411F080E040C01A82198232C086E502
:1005500090E024ECFC012083000086E590E0FC01A3
:1005600080818823D4F783E290E0FC0140812D81D3
:100570003E8189819A81820F931FFC01408381E231
:1005800090E0FC018081887F8B838B81803529F00E
:100590008B81883511F080E017C081E290E0FC018A
:1005A0008081883509F40AC089819A8101969A83ED
:1005B000898389819A81833091054CF286E590E0A8
:1005C00024E9FC01208381E026960FB6F894DEBF73
:1005D0000FBECDBFDF91CF910895CF93DF93CDB7FD
:1005E000DEB7E2970FB6F894DEBF0FBECDBF88AB83
:1005F0007AAB69AB65DD80E090E4ACE9B7E48A836F
:100600009B83AC83BD832BEA3AEA4AE250E46A81D9
:100610007B818C819D81ABD3DC01CB018E839F8359
:10062000A887B9878A819B81AC81BD819C01AD017E
:10063000BC01CD0127D2DC01CB018A879B87AC8727
:10064000BD8720E030E040E85FE36E817F818885F0
:1006500099857CD288231CF481E08E87A7C020E096
:100660003FEF4FE757E46A857B858C859D857BD37B
:1006700018160CF074C020E030E04AE754E46A81B8
:100680007B818C819D8166D2DC01CB018F87988B29
:10069000A98BBA8B20E030E04AEF54E46F8578896B
:1006A00089899A8964D3DC01CB018B8B9C8BAD8BC0
:1006B000BE8B20E030E040E85FE36B897C898D8968
:1006C0009E8944D288232CF481E090E0988F8F8B10
:1006D0003BC020E03FEF4FE757E46B897C898D8971
:1006E0009E8941D318163CF520E030E040E251E409
:1006F0006F85788989899A893AD3DC01CB01BC015D
:10070000CD0190D2DC01CB01988F8F8B0FC088EC8C
:1007100090E09A8F898F898D9A8D0197F1F79A8F42
:10072000898F8F89988D0197988F8F8B8F89988D5E
:10073000009769F73BC06B897C898D899E8972D24D
:10074000DC01CB01988F8F8B8F89988D9C8F8B8F3D
:100750008B8D9C8D0197F1F79C8F8B8F27C020E0AC
:1007600030E04FE753E46E817F8188859985FBD225
:100770001816A4F46A857B858C859D8553D2DC018F
:10078000CB019E8F8D8F8D8D9E8D98A38F8F8F8D9A
:1007900098A10197F1F798A38F8F0EC06E817F818A
:1007A000888599853FD2DC01CB018E878E8589A310
:1007B00089A18A95F1F789A389A99AA9BC0188A979
:1007C000AFDE898396DC80E090E0A0E2B1E48AA30A
:1007D0009BA3ACA3BDA320E030E04AEF54E46AA1A0
:1007E0007BA18CA19DA1C3D2DC01CB018EA39FA3D1
:1007F000A8A7B9A720E030E040E85FE36EA17FA1A1
:1008000088A599A5A3D188232CF481E090E09BA72B
:100810008AA73BC020E03FEF4FE757E46EA17FA1DE
:1008200088A599A5A0D218163CF520E030E040E25A
:1008300051E46AA17BA18CA19DA199D2DC01CB01DD
:10084000BC01CD01EFD1DC01CB019BA78AA70FC072
:1008500088EC90E09DA78CA78CA59DA50197F1F74A
:100860009DA78CA78AA59BA501979BA78AA78AA568
:100870009BA5009769F713C06EA17FA188A599A5D4
:10088000D1D1DC01CB019BA78AA78AA59BA59FA7F5
:100890008EA78EA59FA50197F1F79FA78EA78981A7
:1008A000E2960FB6F894DEBF0FBECDBFDF91CF91B9
:1008B0000895CF93DF9300D000D0CDB7DEB79C83EF
:1008C0008B831A82198222C086E590E024ECFC0119
:1008D0002083000086E590E0FC0180818823D4F726
:1008E00088E390E02981FC01208383E290E0FC0111
:1008F00040812B813C8189819A81820F931FFC0169
:10090000408389819A8101969A83898389819A811A
:1009100083309105CCF286E590E024E8FC01208349
:10092000000086E590E0FC0180818823D4F786E50D
:1009300090E024ECFC0120830F900F900F900F901B
:10094000DF91CF910895CF93DF93CDB7DEB700004D
:1009500086E590E0FC0180818823D4F781E290E075
:10096000FC018081DF91CF910895CF93DF93CDB7C4
:10097000DEB780E490E0FC01108289E290E027E697
:10098000FC0120838AE290E028EDFC01208380E4D2
:1009900090E026E8FC012083DF91CF910895CF936A
:1009A000DF931F92CDB7DEB7898300008BE290E022
:1009B000FC018081882F90E0807299270097B1F325
:1009C0008CE290E02981FC0120830F90DF91CF9190
:1009D0000895CF93DF93CDB7DEB700008BE290E0B0
:1009E000FC0180818823D4F78CE290E0FC018081B7
:1009F000DF91CF910895CF93DF9300D0CDB7DEB7CD
:100A00009A838983E6DF282F89819A81FC012083DC
:100A1000E0DF282F89819A81FC012183DADF282FEA
:100A200089819A81FC012283D4DF282F89819A81D0
:100A3000FC0123830F900F90DF91CF910895A1E2E5
:100A40001A2EAA1BBB1BFD010DC0AA1FBB1FEE1F48
:100A5000FF1FA217B307E407F50720F0A21BB30B93
:100A6000E40BF50B661F771F881F991F1A9469F70F
:100A700060957095809590959B01AC01BD01CF016B
:100A800008955058BB27AA270ED033C124D130F087
:100A900029D120F031F49F3F11F41EF419C10EF456
:100AA000E095E7FB0FC1E92F35D180F3BA17620754
:100AB00073078407950718F071F49EF54DC10EF485
:100AC000E0950B2EBA2FA02D0B01B90190010C015E
:100AD000CA01A0011124FF27591B99F0593F50F476
:100AE000503E68F11A16F040A22F232F342F4427CE
:100AF000585FF3CF469537952795A795F0405395C6
:100B0000C9F77EF41F16BA0B620B730B840BBAF095
:100B10009150A1F0FF0FBB1F661F771F881FC2F700
:100B20000EC0BA0F621F731F841F48F48795779514
:100B30006795B795F7959E3F08F0B3CF9395880FCB
:100B400008F09927EE0F97958795089597D008F4A8
:100B500081E008950CD0CDC0C5D040F0BCD030F0BD
:100B600021F45F3F19F0AEC05111F7C0B1C0D2D02F
:100B700098F39923C9F35523B1F3951B550BBB2764
:100B8000AA2762177307840738F09F5F5F4F220F11
:100B9000331F441FAA1FA9F333D00E2E3AF0E0E80A
:100BA00030D091505040E695001CCAF729D0FE2F56
:100BB00027D0660F771F881FBB1F261737074807E8
:100BC000AB07B0E809F0BB0B802DBF01FF2793589E
:100BD0005F4F2AF09E3F510568F074C0BEC05F3F72
:100BE000ECF3983EDCF3869577956795B795F79586
:100BF0009F5FC9F7880F911D9695879597F908957E
:100C0000E1E0660F771F881FBB1F62177307840719
:100C1000BA0720F0621B730B840BBA0BEE1F88F728
:100C2000E09508957FD088F09F5790F0B92F9927CD
:100C3000B751A0F0D1F0660F771F881F991F1AF0E7
:100C4000BA95C9F712C0B13081F086D0B1E00895ED
:100C500083C0672F782F8827B85F39F0B93FCCF36E
:100C6000869577956795B395D9F73EF490958095DD
:100C7000709561957F4F8F4F9F4F0895990F000892
:100C8000550FAA0BE0E8FEEF16161706E807F9075E
:100C9000C0F012161306E407F50798F0621B730BF9
:100CA000840B950B39F40A2661F0232B242B252B7A
:100CB00021F408950A2609F4A140A6958FEF811D1D
:100CC000811D089597F99F6780E870E060E00895BE
:100CD0009FEF80EC089500240A9416161706180654
:100CE0000906089500240A94121613061406050630
:100CF0000895092E0394000C11F4882352F0BB0FC1
:100D000040F4BF2B11F460FF04C06F5F7F4F8F4F23
:100D10009F4F089557FD9058440F551F59F05F3F5E
:100D200071F04795880F97FB991F61F09F3F79F00D
:100D300087950895121613061406551FF2CF46958F
:100D4000F1DF08C0161617061806991FF1CF869511
:100D50007105610508940895E894BB2766277727F5
:100D6000CB0197F908958ADF08F48FEF08950BD02F
:100D7000C0CFB1DF28F0B6DF18F0952309F0A2CF7D
:100D8000A7CF1124EACFC6DFA0F3959FD1F3950F2B
:100D900050E0551F629FF001729FBB27F00DB11DFF
:100DA000639FAA27F00DB11DAA1F649F6627B00D8F
:100DB000A11D661F829F2227B00DA11D621F739F78
:100DC000B00DA11D621F839FA00D611D221F749F86
:100DD0003327A00D611D231F849F600D211D822FCD
:100DE000762F6A2F11249F5750408AF0E1F0882314
:100DF0004AF0EE0FFF1FBB1F661F771F881F915021
:100E00005040A9F79E3F510570F05CCFA6CF5F3FE1
:100E1000ECF3983EDCF3869577956795B795F79553
:100E2000E7959F5FC1F7FE2B880F911D96958795DB
:080E300097F90895F894FFCF33
:00000001FF
